{
  "_format": "hh3-artifact-1",
  "contractName": "MockUSDC",
  "sourceName": "contracts/MockUSDC.sol",
  "abi": [
    {
      "inputs": [
        {
          "internalType": "address",
          "name": "initialOwner",
          "type": "address"
        }
      ],
      "stateMutability": "nonpayable",
      "type": "constructor"
    },
    {
      "inputs": [
        {
          "internalType": "address",
          "name": "spender",
          "type": "address"
        },
        {
          "internalType": "uint256",
          "name": "allowance",
          "type": "uint256"
        },
        {
          "internalType": "uint256",
          "name": "needed",
          "type": "uint256"
        }
      ],
      "name": "ERC20InsufficientAllowance",
      "type": "error"
    },
    {
      "inputs": [
        {
          "internalType": "address",
          "name": "sender",
          "type": "address"
        },
        {
          "internalType": "uint256",
          "name": "balance",
          "type": "uint256"
        },
        {
          "internalType": "uint256",
          "name": "needed",
          "type": "uint256"
        }
      ],
      "name": "ERC20InsufficientBalance",
      "type": "error"
    },
    {
      "inputs": [
        {
          "internalType": "address",
          "name": "approver",
          "type": "address"
        }
      ],
      "name": "ERC20InvalidApprover",
      "type": "error"
    },
    {
      "inputs": [
        {
          "internalType": "address",
          "name": "receiver",
          "type": "address"
        }
      ],
      "name": "ERC20InvalidReceiver",
      "type": "error"
    },
    {
      "inputs": [
        {
          "internalType": "address",
          "name": "sender",
          "type": "address"
        }
      ],
      "name": "ERC20InvalidSender",
      "type": "error"
    },
    {
      "inputs": [
        {
          "internalType": "address",
          "name": "spender",
          "type": "address"
        }
      ],
      "name": "ERC20InvalidSpender",
      "type": "error"
    },
    {
      "inputs": [
        {
          "internalType": "address",
          "name": "owner",
          "type": "address"
        }
      ],
      "name": "OwnableInvalidOwner",
      "type": "error"
    },
    {
      "inputs": [
        {
          "internalType": "address",
          "name": "account",
          "type": "address"
        }
      ],
      "name": "OwnableUnauthorizedAccount",
      "type": "error"
    },
    {
      "anonymous": false,
      "inputs": [
        {
          "indexed": true,
          "internalType": "address",
          "name": "owner",
          "type": "address"
        },
        {
          "indexed": true,
          "internalType": "address",
          "name": "spender",
          "type": "address"
        },
        {
          "indexed": false,
          "internalType": "uint256",
          "name": "value",
          "type": "uint256"
        }
      ],
      "name": "Approval",
      "type": "event"
    },
    {
      "anonymous": false,
      "inputs": [
        {
          "indexed": true,
          "internalType": "address",
          "name": "previousOwner",
          "type": "address"
        },
        {
          "indexed": true,
          "internalType": "address",
          "name": "newOwner",
          "type": "address"
        }
      ],
      "name": "OwnershipTransferred",
      "type": "event"
    },
    {
      "anonymous": false,
      "inputs": [
        {
          "indexed": true,
          "internalType": "address",
          "name": "from",
          "type": "address"
        },
        {
          "indexed": true,
          "internalType": "address",
          "name": "to",
          "type": "address"
        },
        {
          "indexed": false,
          "internalType": "uint256",
          "name": "value",
          "type": "uint256"
        }
      ],
      "name": "Transfer",
      "type": "event"
    },
    {
      "inputs": [
        {
          "internalType": "address",
          "name": "owner",
          "type": "address"
        },
        {
          "internalType": "address",
          "name": "spender",
          "type": "address"
        }
      ],
      "name": "allowance",
      "outputs": [
        {
          "internalType": "uint256",
          "name": "",
          "type": "uint256"
        }
      ],
      "stateMutability": "view",
      "type": "function"
    },
    {
      "inputs": [
        {
          "internalType": "address",
          "name": "spender",
          "type": "address"
        },
        {
          "internalType": "uint256",
          "name": "value",
          "type": "uint256"
        }
      ],
      "name": "approve",
      "outputs": [
        {
          "internalType": "bool",
          "name": "",
          "type": "bool"
        }
      ],
      "stateMutability": "nonpayable",
      "type": "function"
    },
    {
      "inputs": [
        {
          "internalType": "address",
          "name": "account",
          "type": "address"
        }
      ],
      "name": "balanceOf",
      "outputs": [
        {
          "internalType": "uint256",
          "name": "",
          "type": "uint256"
        }
      ],
      "stateMutability": "view",
      "type": "function"
    },
    {
      "inputs": [],
      "name": "decimals",
      "outputs": [
        {
          "internalType": "uint8",
          "name": "",
          "type": "uint8"
        }
      ],
      "stateMutability": "pure",
      "type": "function"
    },
    {
      "inputs": [
        {
          "internalType": "address",
          "name": "to",
          "type": "address"
        },
        {
          "internalType": "uint256",
          "name": "amount",
          "type": "uint256"
        }
      ],
      "name": "mint",
      "outputs": [],
      "stateMutability": "nonpayable",
      "type": "function"
    },
    {
      "inputs": [
        {
          "internalType": "uint256",
          "name": "amount",
          "type": "uint256"
        }
      ],
      "name": "mintToSelf",
      "outputs": [],
      "stateMutability": "nonpayable",
      "type": "function"
    },
    {
      "inputs": [],
      "name": "name",
      "outputs": [
        {
          "internalType": "string",
          "name": "",
          "type": "string"
        }
      ],
      "stateMutability": "view",
      "type": "function"
    },
    {
      "inputs": [],
      "name": "owner",
      "outputs": [
        {
          "internalType": "address",
          "name": "",
          "type": "address"
        }
      ],
      "stateMutability": "view",
      "type": "function"
    },
    {
      "inputs": [],
      "name": "renounceOwnership",
      "outputs": [],
      "stateMutability": "nonpayable",
      "type": "function"
    },
    {
      "inputs": [],
      "name": "symbol",
      "outputs": [
        {
          "internalType": "string",
          "name": "",
          "type": "string"
        }
      ],
      "stateMutability": "view",
      "type": "function"
    },
    {
      "inputs": [],
      "name": "totalSupply",
      "outputs": [
        {
          "internalType": "uint256",
          "name": "",
          "type": "uint256"
        }
      ],
      "stateMutability": "view",
      "type": "function"
    },
    {
      "inputs": [
        {
          "internalType": "address",
          "name": "to",
          "type": "address"
        },
        {
          "internalType": "uint256",
          "name": "value",
          "type": "uint256"
        }
      ],
      "name": "transfer",
      "outputs": [
        {
          "internalType": "bool",
          "name": "",
          "type": "bool"
        }
      ],
      "stateMutability": "nonpayable",
      "type": "function"
    },
    {
      "inputs": [
        {
          "internalType": "address",
          "name": "from",
          "type": "address"
        },
        {
          "internalType": "address",
          "name": "to",
          "type": "address"
        },
        {
          "internalType": "uint256",
          "name": "value",
          "type": "uint256"
        }
      ],
      "name": "transferFrom",
      "outputs": [
        {
          "internalType": "bool",
          "name": "",
          "type": "bool"
        }
      ],
      "stateMutability": "nonpayable",
      "type": "function"
    },
    {
      "inputs": [
        {
          "internalType": "address",
          "name": "newOwner",
          "type": "address"
        }
      ],
      "name": "transferOwnership",
      "outputs": [],
      "stateMutability": "nonpayable",
      "type": "function"
    }
  ],
  "bytecode": "0x608060405234801561000f575f5ffd5b50604051610b84380380610b8483398101604081905261002e91610120565b806040518060400160405280600d81526020016c26b7b1b5902aa9a21021b7b4b760991b815250604051806040016040528060058152602001646d5553444360d81b815250816003908161008291906101e5565b50600461008f82826101e5565b5050506001600160a01b0381166100bf57604051631e4fbdf760e01b81525f600482015260240160405180910390fd5b6100c8816100cf565b505061029f565b600580546001600160a01b038381166001600160a01b0319831681179093556040519116919082907f8be0079c531659141344cd1fd0a4f28419497f9722a3daafe3b4186f6b6457e0905f90a35050565b5f60208284031215610130575f5ffd5b81516001600160a01b0381168114610146575f5ffd5b9392505050565b634e487b7160e01b5f52604160045260245ffd5b600181811c9082168061017557607f821691505b60208210810361019357634e487b7160e01b5f52602260045260245ffd5b50919050565b601f8211156101e057805f5260205f20601f840160051c810160208510156101be5750805b601f840160051c820191505b818110156101dd575f81556001016101ca565b50505b505050565b81516001600160401b038111156101fe576101fe61014d565b6102128161020c8454610161565b84610199565b6020601f821160018114610244575f831561022d5750848201515b5f19600385901b1c1916600184901b1784556101dd565b5f84815260208120601f198516915b828110156102735787850151825560209485019460019092019101610253565b508482101561029057868401515f19600387901b60f8161c191681555b50505050600190811b01905550565b6108d8806102ac5f395ff3fe608060405234801561000f575f5ffd5b50600436106100e5575f3560e01c8063715018a611610088578063a9059cbb11610063578063a9059cbb146101c6578063bb6d5e3b146101d9578063dd62ed3e146101ec578063f2fde38b14610224575f5ffd5b8063715018a61461019b5780638da5cb5b146101a357806395d89b41146101be575f5ffd5b806323b872dd116100c357806323b872dd1461013c578063313ce5671461014f57806340c10f191461015e57806370a0823114610173575f5ffd5b806306fdde03146100e9578063095ea7b31461010757806318160ddd1461012a575b5f5ffd5b6100f1610237565b6040516100fe9190610731565b60405180910390f35b61011a610115366004610781565b6102c7565b60405190151581526020016100fe565b6002545b6040519081526020016100fe565b61011a61014a3660046107a9565b6102e0565b604051600681526020016100fe565b61017161016c366004610781565b610303565b005b61012e6101813660046107e3565b6001600160a01b03165f9081526020819052604090205490565b610171610319565b6005546040516001600160a01b0390911681526020016100fe565b6100f161032c565b61011a6101d4366004610781565b61033b565b6101716101e7366004610803565b610348565b61012e6101fa36600461081a565b6001600160a01b039182165f90815260016020908152604080832093909416825291909152205490565b6101716102323660046107e3565b61035d565b6060600380546102469061084b565b80601f01602080910402602001604051908101604052809291908181526020018280546102729061084b565b80156102bd5780601f10610294576101008083540402835291602001916102bd565b820191905f5260205f20905b8154815290600101906020018083116102a057829003601f168201915b5050505050905090565b5f336102d481858561039c565b60019150505b92915050565b5f336102ed8582856103ae565b6102f885858561042a565b506001949350505050565b61030b610487565b61031582826104b4565b5050565b610321610487565b61032a5f6104e8565b565b6060600480546102469061084b565b5f336102d481858561042a565b610350610487565b61035a33826104b4565b50565b610365610487565b6001600160a01b03811661039357604051631e4fbdf760e01b81525f60048201526024015b60405180910390fd5b61035a816104e8565b6103a98383836001610539565b505050565b6001600160a01b038381165f908152600160209081526040808320938616835292905220545f19811015610424578181101561041657604051637dc7a0d960e11b81526001600160a01b0384166004820152602481018290526044810183905260640161038a565b61042484848484035f610539565b50505050565b6001600160a01b03831661045357604051634b637e8f60e11b81525f600482015260240161038a565b6001600160a01b03821661047c5760405163ec442f0560e01b81525f600482015260240161038a565b6103a983838361060b565b6005546001600160a01b0316331461032a5760405163118cdaa760e01b815233600482015260240161038a565b6001600160a01b0382166104dd5760405163ec442f0560e01b81525f600482015260240161038a565b6103155f838361060b565b600580546001600160a01b038381166001600160a01b0319831681179093556040519116919082907f8be0079c531659141344cd1fd0a4f28419497f9722a3daafe3b4186f6b6457e0905f90a35050565b6001600160a01b0384166105625760405163e602df0560e01b81525f600482015260240161038a565b6001600160a01b03831661058b57604051634a1406b160e11b81525f600482015260240161038a565b6001600160a01b038085165f908152600160209081526040808320938716835292905220829055801561042457826001600160a01b0316846001600160a01b03167f8c5be1e5ebec7d5bd14f71427d1e84f3dd0314c0f7b2291e5b200ac8c7c3b925846040516105fd91815260200190565b60405180910390a350505050565b6001600160a01b038316610635578060025f82825461062a9190610883565b909155506106a59050565b6001600160a01b0383165f90815260208190526040902054818110156106875760405163391434e360e21b81526001600160a01b0385166004820152602481018290526044810183905260640161038a565b6001600160a01b0384165f9081526020819052604090209082900390555b6001600160a01b0382166106c1576002805482900390556106df565b6001600160a01b0382165f9081526020819052604090208054820190555b816001600160a01b0316836001600160a01b03167fddf252ad1be2c89b69c2b068fc378daa952ba7f163c4a11628f55a4df523b3ef8360405161072491815260200190565b60405180910390a3505050565b602081525f82518060208401528060208501604085015e5f604082850101526040601f19601f83011684010191505092915050565b80356001600160a01b038116811461077c575f5ffd5b919050565b5f5f60408385031215610792575f5ffd5b61079b83610766565b946020939093013593505050565b5f5f5f606084860312156107bb575f5ffd5b6107c484610766565b92506107d260208501610766565b929592945050506040919091013590565b5f602082840312156107f3575f5ffd5b6107fc82610766565b9392505050565b5f60208284031215610813575f5ffd5b5035919050565b5f5f6040838503121561082b575f5ffd5b61083483610766565b915061084260208401610766565b90509250929050565b600181811c9082168061085f57607f821691505b60208210810361087d57634e487b7160e01b5f52602260045260245ffd5b50919050565b808201808211156102da57634e487b7160e01b5f52601160045260245ffdfea2646970667358221220accece38abad1a799b36488ab7a27fd2ddd4bc03af4409c61683f6f90cd9892964736f6c634300081e0033",
  "linkReferences": {},
  "deployedLinkReferences": {},
  "immutableReferences": {},
  "inputSourceName": "project/contracts/MockUSDC.sol",
  "buildInfoId": "solc-0_8_30-71b0a905e644cc437fd644b936a6c846bee7d548"
}